:100000000C94B5000C94A10A0C94A10A0C94A10ABA
:100010000C94A10A0C94A10A0C94A10A0C94A10AB4
:100020000C94A10A0C94A10A0C94A10A0C94A10AA4
:100030000C94A10A0C94A10A0C94FB090C94A10A3B
:100040000C94A10A0C94A10A0C94A10A0C94A10A84
:100050000C94A10A0C94A10A0C94A10A0C94A10A74
:100060000C94A10A0C94A10A0C94A10A0C94A10A64
:100070000C94A10A0C94A10A0C94A10A0C94A10A54
:100080000C94A10A0C94A10A0C94A10A0C94A10A44
:100090000C94A10A0C94A10A0C94A10A0C94A10A34
:1000A0000C94A10A0C94A10A0C94A10A0C94A10A24
:1000B0000C94A10A084AD73B3BCE016E84BCBFFD1D
:1000C000C12F3D6C74319ABD56833DDA3D00C77F28
:1000D00011BED9E4BB4C3E916BAAAABE00000080C1
:1000E0003F07634236B79BD8A71A39685618AEBA8D
:1000F000AB558C1D3CB7CC5763BD6DEDFD753EF621
:10010000177231BF000000803F08000000BE92243B
:1001100049123EABAAAA2ABECDCCCC4C3E00000070
:1001200080BEABAAAAAA3E00000000BF000000806B
:100130003F0000000000084178D3BB4387D1133D46
:10014000190E3CC3BD4282AD2B3E68EC8276BED90F
:100150008FE1A93E4C80EFFFBE01C4FF7F3F00004E
:10016000000000000100015C800011241FBECFEFE1
:10017000D8E0DEBFCDBFE4E6F1E041E017C0B591C5
:10018000A59135912591059107FD0CC0959185911B
:10019000EF01F92FE82F05900D92A217B307D9F7B9
:1001A000FE0104C01D92A217B307E1F7E936F40778
:0E01B00031F70E94DF000C94DD00F894FFCFC1
:1001BE00CF93DF93CDB7DEB72A970FB6F894DEBF95
:1001CE000FBECDBF14BC89E187BD16BCEEE6F0E0D4
:1001DE0080818260808383E085BD61E082E00E9441
:1001EE005D090E947E0980E10E94CD090E94CB0824
:1001FE000E94E409E8E3F1E01182108281EC9BE0B9
:10020E0093838283EEE2F1E081E090E0918380833C
:10021E0080E89CE093838283E8E4F1E082E090E062
:10022E009183808382E79BE09383828310923D01CA
:10023E0010923C0116BC789488E191E00E948C06E5
:10024E00E8E1F1E060817181072E000C880B990BBB
:10025E000E94530720E030E34BE955E40E94920AD6
:10026E004B015C0160911A0170911B01072E000C6D
:10027E00880B990B0E94530720E030E34BE955E4BD
:10028E000E94920A2B013C0160911C0170911D018C
:10029E00072E000C880B990B0E94530720E030E3C9
:1002AE004BE955E40E94920A20E030E040E050E431
:1002BE000E94F5056B017C0120E030E040E050E447
:1002CE00C501B4010E94F50569837A838B839C83F3
:1002DE0029813A814B815C81C701B6010E945B0A7C
:1002EE000E9445069B01AC01C301B2010E94920A15
:1002FE000E946D0820E030E044E353E40E94960A29
:10030E002BED3FE049E450E40E94920A2EE03FE4D8
:10031E004FE45FE30E945A0A609324017093250113
:10032E00809326019093270120E030E040E050E4D6
:10033E00C301B2010E94F5052B013C01A3019201FC
:10034E00C701B6010E945B0A0E9445069B01AC01E3
:10035E00C501B4010E94920A0E946D08905820E0D7
:10036E0030E044E353E40E94960A2BED3FE049E46B
:10037E0050E40E94920A2DE13AE540E050E40E94DA
:10038E005B0A60931E0170931F018093200190936E
:10039E00210182E091E00E94CF0660913C017091B4
:1003AE003D0180E090E00E94510720E030E44CE1F6
:1003BE0056E40E94920A6B017C01609328017093AF
:1003CE00290180932A0190932B0110923D011092E6
:1003DE003C01E2E0F1E060817181072E000C880B98
:1003EE00990B0E94530720E030E043E053E40E9453
:1003FE00920A2FE135E84BEC5FE30E945B0A2B017A
:10040E003C016091040170910501072E000C880BD0
:10041E00990B0E9453072FEC36E94EE253E40E94EB
:10042E005B0A20E030E043E053E40E94920A4B0165
:10043E005C016091060170910701072E000C880B7C
:10044E00990B0E94530720E030E043E053E40E94F2
:10045E00920A2DE33AE047EB5FE30E945B0A698361
:10046E007A838B839C83A3019201C701B6010E94FC
:10047E00960A209114013091150140911601509168
:10048E0017010E945B0A2B013C01609314017093CB
:10049E0015018093160190931701A5019401C701D0
:1004AE00B6010E94960A20914C0130914D01409167
:1004BE004E0150914F010E945B0A4B015C0160930B
:1004CE004C0170934D0180934E0190934F01298101
:1004DE003A814B815C81C701B6010E94960A6B017D
:1004EE007C012091340130913501409136015091BB
:1004FE0037010E945B0A609334017093350180933B
:10050E003601909337012091580130915901409155
:10051E005A0150915B01C701B6010E945B0A6B0143
:10052E007C01609358017093590180935A01909306
:10053E005B012CEE31E548E75FE3C301B2010E9497
:10054E00960A2B013C012FE832EC45EF5CE36091FB
:10055E0024017091250180912601909127010E941E
:10056E00960A9B01AC01C301B2010E945B0A2B01EA
:10057E003C01609354017093550180935601909302
:10058E0057012CEE31E548E75FE3C501B4010E9447
:10059E00960A4B015C012FE832EC45EF5CE360916B
:1005AE001E0170911F0180912001909121010E94E6
:1005BE00960A9B01AC01C501B4010E945B0A4B0176
:1005CE005C0160935001709351018093520190939E
:1005DE00530120E030E04AE754E4C701B6010E941F
:1005EE00960A20E030E040E85EE30E94960A20E0A2
:1005FE0030E14CE355E40E945B0A0E94610A7A8363
:10060E00698370933B0160933A01C501B401905820
:10061E0020E030E04AE754E40E94960A20E030E001
:10062E0040EC50E40E94920A20E030E048E455E4A9
:10063E000E945B0A0E94610A8B01709331016093E4
:10064E00300120E030E04AE754E4C301B2010E94D9
:10065E00960A20E030E040EC50E40E94920A20E03E
:10066E0030E247E355E40E945B0A0E94610A9B0157
:10067E0070934B0160934A0189819A818033914135
:10068E0034F080E391E190933B0180933A018091A5
:10069E003A0190913B018D3D954034F48CED95E0FF
:1006AE0090933B0180933A010033114134F080E383
:1006BE0091E19093310180933001809130019091BE
:1006CE003101813D974034F480ED97E090933101F4
:1006DE00809330012033314134F080E391E19093E7
:1006EE004B0180934A0180914A0190914B018D3DBF
:1006FE00954034F48CED95E090934B0180934A0134
:10070E001A86198600E010E0212C312C412C512C38
:10071E00CEC0A0908800B090890060908A00709042
:10072E008B00E0909800F090990060913A017091E2
:10073E003B016A197B098090300190903101861837
:10074E00970880914A0190914B016C01CE18DF08F9
:10075E00460E571E280C391C0C0D1D1D072E000CA5
:10076E00880B990B0E9453072AE939E949E95EE3A0
:10077E000E94960A69837A838B839C83B201052C2F
:10078E00000C880B990B0E9453072AE037ED43E2C9
:10079E005CE30E94960A9B01AC0169817A818B8190
:1007AE009C810E945B0A69837A838B839C83B5014B
:1007BE00BB0C880B990B0E94530729813A814B8100
:1007CE005C810E945B0A0E94610A69837A838B8333
:1007DE009C83B401990C880B990B0E9453072AE94C
:1007EE0039E949E95EE30E94960A4B015C01B101C9
:1007FE00032C000C880B990B0E9453072AE037ED4F
:10080E0043E25CE30E94960A9B01AC01C501B40170
:10081E000E945B0A4B015C01B301770C880B990BAC
:10082E000E945307A50194010E945B0A0E94610A6F
:10083E006D837E838F839887B601DD0C880B990BB1
:10084E000E9453072AE939E949E95EE30E94960AB4
:10085E004B015C01B801012E000C880B990B0E9414
:10086E0053072AE037ED43E25CE30E94960A9B01B0
:10087E00AC01C501B4010E945B0A4B015C01B701DA
:10088E00FF0C880B990B0E945307A50194010E943F
:10089E005B0A0E94610AAB016D817E8189819A811A
:1008AE000E94450A89859A8501969A878987E985E6
:0A08BE00FA85F2970CF42DCFBFCCA1
:1008C80010C00E946F0A58F00E94680A40F029F48C
:1008D8005F3F29F00C94840A51110C94770A0C9408
:1008E8009E0A0E941A0968F39923B1F3552391F3DC
:1008F800951B550BBB27AA2762177307840738F087
:100908009F5F5F4F220F331F441FAA1FA9F335D0E3
:100918000E2E3AF0E0E832D091505040E695001C97
:10092800CAF72BD0FE2F29D0660F771F881FBB1F51
:10093800261737074807AB07B0E809F0BB0B802D2F
:10094800BF01FF2793585F4F3AF09E3F510578F05B
:100958000C94840A0C94770A5F3FE4F3983ED4F32E
:10096800869577956795B795F7959F5FC9F7880F2F
:10097800911D9695879597F90895E1E0660F771F81
:10098800881FBB1F621773078407BA0720F0621B12
:0E099800730B840BBA0BEE1F88F7E0950895E1
:1009A6000FC00E94680A38F00E946F0A20F0952353
:1009B60011F00C94840A0C949E0A11240C94770A64
:1009C6000E941A0970F3959FC1F3950F50E0551FC9
:1009D600629FF001729FBB27F00DB11D639FAA278E
:1009E600F00DB11DAA1F649F6627B00DA11D661FDD
:1009F600829F2227B00DA11D621F739FB00DA11DFE
:100A0600621F839FA00D611D221F749F3327A00DB7
:100A1600611D231F849F600D211D822F762F6A2F53
:100A260011249F5750409AF0F1F088234AF0EE0FB8
:100A3600FF1FBB1F661F771F881F91505040A9F7E5
:100A46009E3F510580F00C94840A0C94770A5F3F10
:100A5600E4F3983ED4F3869577956795B795F79521
:100A6600E7959F5FC1F7FE2B880F911D9695879599
:040A760097F908954F
:100A7A0011C00E94680A38F00E946F0A20F039F407
:100A8A009F3F19F426F40C949E0A0EF4E095E7FBB6
:100A9A000C94840AE92F0E941A0958F3BA176207BC
:100AAA0073078407950720F079F4A6F50C94760A63
:100ABA000EF4E0950B2EBA2FA02D0B01B90190016F
:100ACA000C01CA01A0011124FF27591B99F0593FB3
:100ADA0050F4503E68F11A16F040A22F232F342FFB
:100AEA004427585FF3CF469537952795A795F04049
:100AFA005395C9F77EF41F16BA0B620B730B840B5E
:100B0A00BAF09150A1F0FF0FBB1F661F771F881F15
:100B1A00C2F70EC0BA0F621F731F841F48F487956D
:100B2A0077956795B795F7959E3F08F0B0CF93955F
:0E0B3A00880F08F09927EE0F9795879508957C
:100B480008C016F00C94370A0C949E0A68940C940A
:100B5800840A0E942209A8F39923C1F3AEF3DF9314
:100B6800CF931F930F93FF92C92FDD2788232AF075
:100B78002197660F771F881FDAF720E030E040E8FA
:100B88005FEB9FE3883920F0803E38F021968F771D
:100B98000E945B0AE9E0F1E004C00E945B0AE6E318
:100BA800F1E00E94F3088B01BE01EC01FB2E6F57A8
:100BB80071097595771F880B990B0E94530728E1D7
:100BC80032E741E35FE30E94D304AF2D9801AE0101
:100BD800FF900F911F91CF91DF910E943D050C94DA
:020BE800260ADB
:100BEA00FA01EE0FFF1F309621053105A1F16115BB
:100BFA00710561F48038BFE39B0749F16894903826
:100C0A00810561F08038BFEF9B0741F099234AF5CF
:100C1A00FF3FE1053105210519F1E8940894E795AC
:100C2A00D901AA2329F4AB2FBE2FF85FD0F310C045
:100C3A00FF5F70F4A695E0F7F73950F019F0FF3A24
:100C4A0038F49F779F930DD00F9007FC9058089522
:100C5A0046F00C949E0A60E070E080E89FE30895F5
:100C6A004FE79F775F934F933F932F930E94A4057B
:100C7A002F913F914F915F910E94960A0C948E0793
:100C8A0006C019F416F40C949E0A0C94370A0E94B2
:100C9A002209B8F39923C9F3B6F39F57550B87FF77
:100CAA000E947D0A0024A0E640EA900180585695E9
:100CBA00979528F4805C660F771F881F20F0261707
:100CCA003707480730F4621B730B840B202931293C
:100CDA004A2BA69517940794202531254A2758F7B9
:100CEA00660F771F881F20F026173707480730F44A
:100CFA00620B730B840B200D311D411DA09581F7EA
:0E0D0A00B901842F9158880F9695879508950A
:100D18000F931F93CF93DF9300D000D000D0CDB7AF
:100D2800DEB78C018BE3898321E041E0BE016F5F70
:100D38007F4F88E60E9404080E948A0A46E0BE01A6
:100D48006F5F7F4F88E60E9412070E948A0A898196
:100D580090E0982F88272A81822BF801918380833D
:100D68008B8190E0982F88272C81822B9383828314
:100D78008D8190E0982F88272E81822B95838483FC
:100D880026960FB6F894DEBF0FBECDBFDF91CF9188
:060D98001F910F91089568
:100D9E000F931F93CF93DF9300D000D000D0CDB729
:100DAE00DEB78C0183E4898321E041E0BE016F5FF1
:100DBE007F4F88E60E9404080E948A0A46E0BE0120
:100DCE006F5F7F4F88E60E9412070E948A0A898110
:100DDE0090E0982F88272A81822BF80191838083B7
:100DEE008B8190E0982F88272C81822B938382838E
:100DFE008D8190E0982F88272E81822B9583848376
:100E0E0026960FB6F894DEBF0FBECDBFDF91CF9101
:060E1E001F910F910895E1
:100E2400CF92DF92FF920F931F93CF93DF93C82F3C
:100E34008B01F42E0E94B4099C01009739F58C2F84
:100E440090E0880F991F81600E9499090097F9F436
:100E5400C0E0D0E009C06801CC0EDD1E81E00E9434
:100E64003C09F601808321968F2D90E00197C817E5
:100E7400D9078CF3EC01C00FD11F80E00E943C091C
:100E840088830E948E0A80E090E001C0932FDF9156
:0E0E9400CF911F910F91FF90DF90CF900895A6
:100EA200E89409C097FB3EF4909580957095619502
:100EB2007F4F8F4F9F4F9923A9F0F92F96E9BB27B8
:100EC2009395F695879577956795B795F111F8CF34
:100ED200FAF4BB0F11F460FF1BC06F5F7F4F8F4F9F
:100EE2009F4F16C0882311F096E911C0772321F095
:100EF2009EE8872F762F05C0662371F096E8862F2D
:100F020070E060E02AF09A95660F771F881FDAF783
:0A0F1200880F9695879597F90895CA
:100F1C0008C029F416F00C94840A0C94760A0C94EC
:100F2C009E0A0E942209A8F39638A0F707F80F92A0
:100F3C00E8942BE33AEA48EB5FE70E94E6040F9251
:100F4C000F920F924DB75EB70F920E943908E1EEE7
:100F5C00F0E00E94F3084F915F91EF91FF91E595BE
:100F6C00EE1FFF1F49F0FE57E0684427EE0F441FA9
:100F7C00FA95E1F74195550B0E94C9070F9007FEB2
:060F8C000C94520A0895C6
:100F920004C00C94840A0C94370A0E942209D8F3E4
:100FA2009923C9F3940F511DA3F39150504094F02B
:100FB20059F0882332F0660F771F881F91505040F6
:100FC200C1F79E3F51052CF7880F911D9695879585
:100FD20097F908955F3FACF0983E9CF0BB27869549
:100FE20077956795B79508F4B1609395C1F7BB0FF4
:100FF20058F711F460FFE8CF6F5F7F4F8F4F9F4F1D
:06100200E3CF0C94770A15
:10100800EF92FF920F931F93CF93DF93C82F7B012B
:10101800142F022F0E94B409009701F58C2F880F16
:101028000E9499090097D1F4C0E0D0E009C0F70107
:10103800EC0FFD1F80810E94120A009779F4219617
:10104800812F90E0C817D90794F3011105C00E94B9
:101058008E0A80E090E002C080E090E0DF91CF91BE
:0A1068001F910F91FF90EF90089583
:10107200FA01DC01AA0FBB1F9B01AC01BF5728F488
:10108200222733274427507820C0B75190F4AB2F42
:101092000024469537952795011CA395D2F300208D
:1010A20071F0220F331F441FB395DAF30ED00C9464
:1010B2005A0A61307105A0E88A07B94630F49B01EB
:1010C200AC016627772788279078309621F0208315
:0810D20031834283538308952A
:1010DA00DF93DD27B92FBF7740E85FE316161706BF
:1010EA0048075B0718F4D92F0E94520A9F938F93DF
:1010FA007F936F930E949A0AE4EBF0E00E94F30850
:10110A000E94260A2F913F914F915F910E94D3042A
:10111A00DD2351F09058A2EA2AED3FE049EC5FE363
:0E112A00D0785D270E943D05DF910C94260AC7
:101138000E94220988F09F5798F0B92F9927B75134
:10114800B0F0E1F0660F771F881F991F1AF0BA9563
:10115800C9F714C0B13091F00E94760AB1E0089541
:101168000C94760A672F782F8827B85F39F0B93F33
:10117800CCF3869577956795B395D9F73EF4909516
:0E1188008095709561957F4F8F4F9F4F089512
:1011960086E084B981E08AB982EA809380008AE198
:1011A6008093810092E890939000809391008FE362
:1011B6009CE9909387008093860090939700809394
:1011C600960087EB9BE0909389008093880090932C
:1011D6008B0080938A0090939900809398000895DD
:1011E600DF93CF931F930F93FF92EF92DF927B01D2
:1011F6008C01689406C0DA2EEF010E94D304FE012A
:10120600E894A5912591359145915591A6F3EF0165
:101216000E943D05FE019701A801DA9469F7DF9067
:0E122600EF90FF900F911F91CF91DF910895EF
:1012340057FD9058440F551F59F05F3F71F0479583
:10124400880F97FB991F61F09F3F79F08795089568
:10125400121613061406551FF2CF4695F1DF08C087
:10126400161617061806991FF1CF869571056105A4
:04127400089408953D
:10127800882371F084EC8093BC008091BC008823A3
:10128800E4F78091B900803589F08091B90008951C
:1012980084E88093BC008091BC008823E4F78091A7
:1012A800B900883519F08091B90008958091BB0084
:0212B800089597
:1012BA0097B1906397B9662321F098B1906398B972
:1012CA0003C098B19F7C98B997B19F7C97B9813038
:1012DA0041F018F0823049F0089588E48093B8000C
:1012EA00089588E18093B80008958CE08093B8004F
:0212FA00089555
:1012FC00CF93DF9300D0CDB7DEB78BE689831A820C
:10130C0020E042E0BE016F5F7F4F88E60E94040838
:10131C0090934701809346010E948A0A0F900F9088
:06132C00DF91CF9108954E
:101332008093BB0084E88093BC008091BC0088232A
:10134200E4F78091B900883141F08091B90080348E
:1013520039F08091B90090E0089580E090E008951E
:0613620080E090E0089518
:1013680084EA8093BC008091BC008823E4F78091D4
:10137800B900883041F08091B900803139F080910E
:10138800B90090E0089580E090E0089580E090E052
:021398000895B6
:10139A00CF93DF9300D0CDB7DEB79CE199838A83E0
:1013AA0021E042E0BE016F5F7F4F88E60E94040899
:0E13BA000E948A0A0F900F90DF91CF91089544
:1013C800CF93DF9300D0CDB7DEB78BE189831A8244
:1013D80021E042E0BE016F5F7F4F88E60E9404086B
:0E13E8000E948A0A0F900F90DF91CF91089516
:1013F6001F920F920FB60F9211248F939F93809195
:101406003C0190913D01019690933D0180933C01F2
:0E1416009F918F910F900FBE0F901F90189511
:101424008093BB0084E88093BC008091BC00882337
:10143400E4F78091B900883221F08091B90090E0FE
:08144400089580E090E0089596
:10144C00092E0394000C11F4882352F0BB0F40F4C6
:10145C00BF2B11F460FF04C06F5F7F4F8F4F9F4F06
:02146C000895E1
:10146E009F3F31F0915020F4879577956795B7950A
:0C147E00880F911D9695879597F90895A9
:10148A00909389008093880070938B0060938A0000
:0A149A0050939900409398000895C4
:1014A4009B01AC0160E070E080E89FE30C94920A39
:0E14B4005058BB27AA270E943D050C94260A1B
:0E14C2000E949C086894B1110C94770A08955A
:0E14D00000240A941616170618060906089539
:0E14DE0000240A94121613061406050608953B
:0E14EC00E894BB2766277727CB0197F9089570
:0E14FA0091505040660F771F881FD2F708955B
:0C15080097F99F6780E870E060E00895AC
:08151400892B09F0FFCF0895B7
:08151C0084E98093BC000895EE
:081524000E9464040C94260AE5
:08152C000E94D3040C94260A6E
:081534009B01AC010C94960A26
:06153C009FEF80EC089512
:041542000C94000005
:00000001FF
